{"abi":[{"type":"function","name":"Q112","inputs":[],"outputs":[{"name":"","type":"uint256","internalType":"uint256"}],"stateMutability":"view"},{"type":"function","name":"RESOLUTION","inputs":[],"outputs":[{"name":"","type":"uint8","internalType":"uint8"}],"stateMutability":"view"}],"bytecode":{"object":"0x61011f61004d600b8282823980515f1a6073146041577f4e487b71000000000000000000000000000000000000000000000000000000005f525f60045260245ffd5b305f52607381538281f3fe7300000000000000000000000000000000000000003014608060405260043610603c575f3560e01c80633bf7a83e146040578063552f888a14605a575b5f5ffd5b60466074565b6040516051919060a2565b60405180910390f35b60606087565b604051606b919060d2565b60405180910390f35b6e01000000000000000000000000000081565b607081565b5f819050919050565b609c81608c565b82525050565b5f60208201905060b35f8301846095565b92915050565b5f60ff82169050919050565b60cc8160b9565b82525050565b5f60208201905060e35f83018460c5565b9291505056fea26469706673582212209080a02fcfc11caadf91c3930bcd5c763711ef3dd12930b1664613cafb72809c64736f6c634300081c0033","linkReferences":{}},"methodIdentifiers":{"Q112()":"3bf7a83e","RESOLUTION()":"552f888a"},"id":35}