{"abi":[{"type":"constructor","inputs":[{"name":"_feeToSetter","type":"address","internalType":"address"}],"stateMutability":"nonpayable"},{"type":"function","name":"allPairs","inputs":[{"name":"","type":"uint256","internalType":"uint256"}],"outputs":[{"name":"","type":"address","internalType":"address"}],"stateMutability":"view"},{"type":"function","name":"allPairsLength","inputs":[],"outputs":[{"name":"","type":"uint256","internalType":"uint256"}],"stateMutability":"view"},{"type":"function","name":"createPair","inputs":[{"name":"tokenA","type":"address","internalType":"address"},{"name":"tokenB","type":"address","internalType":"address"}],"outputs":[{"name":"pair","type":"address","internalType":"address"}],"stateMutability":"nonpayable"},{"type":"function","name":"feeTo","inputs":[],"outputs":[{"name":"","type":"address","internalType":"address"}],"stateMutability":"view"},{"type":"function","name":"feeToSetter","inputs":[],"outputs":[{"name":"","type":"address","internalType":"address"}],"stateMutability":"view"},{"type":"function","name":"getPair","inputs":[{"name":"","type":"address","internalType":"address"},{"name":"","type":"address","internalType":"address"}],"outputs":[{"name":"","type":"address","internalType":"address"}],"stateMutability":"view"},{"type":"function","name":"setFeeTo","inputs":[{"name":"_feeTo","type":"address","internalType":"address"}],"outputs":[],"stateMutability":"nonpayable"},{"type":"function","name":"setFeeToSetter","inputs":[{"name":"_feeToSetter","type":"address","internalType":"address"}],"outputs":[],"stateMutability":"nonpayable"},{"type":"event","name":"PairCreated","inputs":[{"name":"token0","type":"address","indexed":true,"internalType":"address"},{"name":"token1","type":"address","indexed":true,"internalType":"address"},{"name":"pair","type":"address","indexed":false,"internalType":"address"},{"name":"","type":"uint256","indexed":false,"internalType":"uint256"}],"anonymous":false}],"bytecode":{"object":"0x608060405234801561000f575f5ffd5b50604051614f0e380380614f0e833981810160405281019061003191906100d5565b8060015f6101000a81548173ffffffffffffffffffffffffffffffffffffffff021916908373ffffffffffffffffffffffffffffffffffffffff16021790555050610100565b5f5ffd5b5f73ffffffffffffffffffffffffffffffffffffffff82169050919050565b5f6100a48261007b565b9050919050565b6100b48161009a565b81146100be575f5ffd5b50565b5f815190506100cf816100ab565b92915050565b5f602082840312156100ea576100e9610077565b5b5f6100f7848285016100c1565b91505092915050565b614e018061010d5f395ff3fe608060405234801561000f575f5ffd5b5060043610610086575f3560e01c8063a2e74af611610059578063a2e74af614610114578063c9c6539614610130578063e6a4390514610160578063f46901ed1461019057610086565b8063017e7e581461008a578063094b7415146100a85780631e3dd18b146100c6578063574f2ba3146100f6575b5f5ffd5b6100926101ac565b60405161009f9190610995565b60405180910390f35b6100b06101d0565b6040516100bd9190610995565b60405180910390f35b6100e060048036038101906100db91906109e5565b6101f5565b6040516100ed9190610995565b60405180910390f35b6100fe610230565b60405161010b9190610a1f565b60405180910390f35b61012e60048036038101906101299190610a62565b61023c565b005b61014a60048036038101906101459190610a8d565b61030e565b6040516101579190610995565b60405180910390f35b61017a60048036038101906101759190610a8d565b61083b565b6040516101879190610995565b60405180910390f35b6101aa60048036038101906101a59190610a62565b610878565b005b5f5f9054906101000a900473ffffffffffffffffffffffffffffffffffffffff1681565b60015f9054906101000a900473ffffffffffffffffffffffffffffffffffffffff1681565b60038181548110610204575f80fd5b905f5260205f20015f915054906101000a900473ffffffffffffffffffffffffffffffffffffffff1681565b5f600380549050905090565b60015f9054906101000a900473ffffffffffffffffffffffffffffffffffffffff1673ffffffffffffffffffffffffffffffffffffffff163373ffffffffffffffffffffffffffffffffffffffff16146102cb576040517f08c379a00000000000000000000000000000000000000000000000000000000081526004016102c290610b25565b60405180910390fd5b8060015f6101000a81548173ffffffffffffffffffffffffffffffffffffffff021916908373ffffffffffffffffffffffffffffffffffffffff16021790555050565b5f8173ffffffffffffffffffffffffffffffffffffffff168373ffffffffffffffffffffffffffffffffffffffff160361037d576040517f08c379a000000000000000000000000000000000000000000000000000000000815260040161037490610b8d565b60405180910390fd5b5f5f8373ffffffffffffffffffffffffffffffffffffffff168573ffffffffffffffffffffffffffffffffffffffff16106103b95783856103bc565b84845b915091505f73ffffffffffffffffffffffffffffffffffffffff168273ffffffffffffffffffffffffffffffffffffffff160361042e576040517f08c379a000000000000000000000000000000000000000000000000000000000815260040161042590610bf5565b60405180910390fd5b5f73ffffffffffffffffffffffffffffffffffffffff1660025f8473ffffffffffffffffffffffffffffffffffffffff1673ffffffffffffffffffffffffffffffffffffffff1681526020019081526020015f205f8373ffffffffffffffffffffffffffffffffffffffff1673ffffffffffffffffffffffffffffffffffffffff1681526020019081526020015f205f9054906101000a900473ffffffffffffffffffffffffffffffffffffffff1673ffffffffffffffffffffffffffffffffffffffff1614610533576040517f08c379a000000000000000000000000000000000000000000000000000000000815260040161052a90610c5d565b60405180910390fd5b5f6040518060200161054490610949565b6020820181038252601f19601f8201166040525090505f838360405160200161056e929190610cc0565b604051602081830303815290604052805190602001209050808251602084015ff594508473ffffffffffffffffffffffffffffffffffffffff1663485cc95585856040518363ffffffff1660e01b81526004016105cc929190610ceb565b5f604051808303815f87803b1580156105e3575f5ffd5b505af11580156105f5573d5f5f3e3d5ffd5b505050508460025f8673ffffffffffffffffffffffffffffffffffffffff1673ffffffffffffffffffffffffffffffffffffffff1681526020019081526020015f205f8573ffffffffffffffffffffffffffffffffffffffff1673ffffffffffffffffffffffffffffffffffffffff1681526020019081526020015f205f6101000a81548173ffffffffffffffffffffffffffffffffffffffff021916908373ffffffffffffffffffffffffffffffffffffffff1602179055508460025f8573ffffffffffffffffffffffffffffffffffffffff1673ffffffffffffffffffffffffffffffffffffffff1681526020019081526020015f205f8673ffffffffffffffffffffffffffffffffffffffff1673ffffffffffffffffffffffffffffffffffffffff1681526020019081526020015f205f6101000a81548173ffffffffffffffffffffffffffffffffffffffff021916908373ffffffffffffffffffffffffffffffffffffffff160217905550600385908060018154018082558091505060019003905f5260205f20015f9091909190916101000a81548173ffffffffffffffffffffffffffffffffffffffff021916908373ffffffffffffffffffffffffffffffffffffffff1602179055508273ffffffffffffffffffffffffffffffffffffffff168473ffffffffffffffffffffffffffffffffffffffff167f0d3648bd0f6ba80134a33ba9275ac585d9d315f0ad8355cddefde31afa28d0e987600380549050604051610829929190610d12565b60405180910390a35050505092915050565b6002602052815f5260405f20602052805f5260405f205f915091509054906101000a900473ffffffffffffffffffffffffffffffffffffffff1681565b60015f9054906101000a900473ffffffffffffffffffffffffffffffffffffffff1673ffffffffffffffffffffffffffffffffffffffff163373ffffffffffffffffffffffffffffffffffffffff1614610907576040517f08c379a00000000000000000000000000000000000000000000000000000000081526004016108fe90610b25565b60405180910390fd5b805f5f6101000a81548173ffffffffffffffffffffffffffffffffffffffff021916908373ffffffffffffffffffffffffffffffffffffffff16021790555050565b61409280610d3a83390190565b5f73ffffffffffffffffffffffffffffffffffffffff82169050919050565b5f61097f82610956565b9050919050565b61098f81610975565b82525050565b5f6020820190506109a85f830184610986565b92915050565b5f5ffd5b5f819050919050565b6109c4816109b2565b81146109ce575f5ffd5b50565b5f813590506109df816109bb565b92915050565b5f602082840312156109fa576109f96109ae565b5b5f610a07848285016109d1565b91505092915050565b610a19816109b2565b82525050565b5f602082019050610a325f830184610a10565b92915050565b610a4181610975565b8114610a4b575f5ffd5b50565b5f81359050610a5c81610a38565b92915050565b5f60208284031215610a7757610a766109ae565b5b5f610a8484828501610a4e565b91505092915050565b5f5f60408385031215610aa357610aa26109ae565b5b5f610ab085828601610a4e565b9250506020610ac185828601610a4e565b9150509250929050565b5f82825260208201905092915050565b7f556e697377617056323a20464f5242494444454e0000000000000000000000005f82015250565b5f610b0f601483610acb565b9150610b1a82610adb565b602082019050919050565b5f6020820190508181035f830152610b3c81610b03565b9050919050565b7f556e697377617056323a204944454e544943414c5f41444452455353455300005f82015250565b5f610b77601e83610acb565b9150610b8282610b43565b602082019050919050565b5f6020820190508181035f830152610ba481610b6b565b9050919050565b7f556e697377617056323a205a45524f5f414444524553530000000000000000005f82015250565b5f610bdf601783610acb565b9150610bea82610bab565b602082019050919050565b5f6020820190508181035f830152610c0c81610bd3565b9050919050565b7f556e697377617056323a20504149525f455849535453000000000000000000005f82015250565b5f610c47601683610acb565b9150610c5282610c13565b602082019050919050565b5f6020820190508181035f830152610c7481610c3b565b9050919050565b5f8160601b9050919050565b5f610c9182610c7b565b9050919050565b5f610ca282610c87565b9050919050565b610cba610cb582610975565b610c98565b82525050565b5f610ccb8285610ca9565b601482019150610cdb8284610ca9565b6014820191508190509392505050565b5f604082019050610cfe5f830185610986565b610d0b6020830184610986565b9392505050565b5f604082019050610d255f830185610986565b610d326020830184610a10565b939250505056fe60806040526001600c55348015610014575f5ffd5b503360055f6101000a81548173ffffffffffffffffffffffffffffffffffffffff021916908373ffffffffffffffffffffffffffffffffffffffff1602179055505f4690507f8b73c3c69bb8fe3d512ecc4cf759cc79239f7b179b0ffacaa9a75d522b39400f6040518060400160405280600a81526020017f556e697377617020563200000000000000000000000000000000000000000000815250805190602001206040518060400160405280600181526020017f310000000000000000000000000000000000000000000000000000000000000081525080519060200120833060405160200161010a95949392919061019a565b604051602081830303815290604052805190602001205f81905550506101eb565b5f819050919050565b61013d8161012b565b82525050565b5f819050919050565b61015581610143565b82525050565b5f73ffffffffffffffffffffffffffffffffffffffff82169050919050565b5f6101848261015b565b9050919050565b6101948161017a565b82525050565b5f60a0820190506101ad5f830188610134565b6101ba6020830187610134565b6101c76040830186610134565b6101d4606083018561014c565b6101e1608083018461018b565b9695505050505050565b613e9a806101f85f395ff3fe608060405234801561000f575f5ffd5b50600436106101a7575f3560e01c80636a627842116100f7578063ba9a7a5611610095578063d21220a71161006f578063d21220a7146104d8578063d505accf146104f6578063dd62ed3e14610512578063fff6cae914610542576101a7565b8063ba9a7a5614610480578063bc25cf771461049e578063c45a0155146104ba576101a7565b80637ecebe00116100d15780637ecebe00146103d157806389afcb441461040157806395d89b4114610432578063a9059cbb14610450576101a7565b80636a6278421461035357806370a08231146103835780637464fc3d146103b3576101a7565b806323b872dd116101645780633644e5151161013e5780633644e515146102dd578063485cc955146102fb5780635909c0d5146103175780635a3d549314610335576101a7565b806323b872dd1461027157806330adf81f146102a1578063313ce567146102bf576101a7565b8063022c0d9f146101ab57806306fdde03146101c75780630902f1ac146101e5578063095ea7b3146102055780630dfe16811461023557806318160ddd14610253575b5f5ffd5b6101c560048036038101906101c09190612c89565b61054c565b005b6101cf610b81565b6040516101dc9190612d7d565b60405180910390f35b6101ed610bba565b6040516101fc93929190612de3565b60405180910390f35b61021f600480360381019061021a9190612e18565b610c14565b60405161022c9190612e70565b60405180910390f35b61023d610c2a565b60405161024a9190612e98565b60405180910390f35b61025b610c4f565b6040516102689190612ec0565b60405180910390f35b61028b60048036038101906102869190612ed9565b610c55565b6040516102989190612e70565b60405180910390f35b6102a9610e13565b6040516102b69190612f41565b60405180910390f35b6102c7610e39565b6040516102d49190612f75565b60405180910390f35b6102e5610e3e565b6040516102f29190612f41565b60405180910390f35b61031560048036038101906103109190612f8e565b610e43565b005b61031f610f56565b60405161032c9190612ec0565b60405180910390f35b61033d610f5c565b60405161034a9190612ec0565b60405180910390f35b61036d60048036038101906103689190612fcc565b610f62565b60405161037a9190612ec0565b60405180910390f35b61039d60048036038101906103989190612fcc565b611339565b6040516103aa9190612ec0565b60405180910390f35b6103bb61134e565b6040516103c89190612ec0565b60405180910390f35b6103eb60048036038101906103e69190612fcc565b611354565b6040516103f89190612ec0565b60405180910390f35b61041b60048036038101906104169190612fcc565b611369565b604051610429929190612ff7565b60405180910390f35b61043a6117fb565b6040516104479190612d7d565b60405180910390f35b61046a60048036038101906104659190612e18565b611834565b6040516104779190612e70565b60405180910390f35b61048861184a565b6040516104959190612ec0565b60405180910390f35b6104b860048036038101906104b39190612fcc565b611850565b005b6104c2611a72565b6040516104cf9190612e98565b60405180910390f35b6104e0611a97565b6040516104ed9190612e98565b60405180910390f35b610510600480360381019061050b9190613072565b611abc565b005b61052c60048036038101906105279190612f8e565b611cd9565b6040516105399190612ec0565b60405180910390f35b61054a611cf9565b005b6001600c5414610591576040517f08c379a000000000000000000000000000000000000000000000000000000000815260040161058890613159565b60405180910390fd5b5f600c819055505f8511806105a557505f84115b6105e4576040517f08c379a00000000000000000000000000000000000000000000000000000000081526004016105db906131e7565b60405180910390fd5b5f5f6105ee610bba565b5091509150816dffffffffffffffffffffffffffff16871080156106215750806dffffffffffffffffffffffffffff1686105b610660576040517f08c379a000000000000000000000000000000000000000000000000000000000815260040161065790613275565b60405180910390fd5b5f5f5f60065f9054906101000a900473ffffffffffffffffffffffffffffffffffffffff1690505f60075f9054906101000a900473ffffffffffffffffffffffffffffffffffffffff1690508173ffffffffffffffffffffffffffffffffffffffff168973ffffffffffffffffffffffffffffffffffffffff161415801561071457508073ffffffffffffffffffffffffffffffffffffffff168973ffffffffffffffffffffffffffffffffffffffff1614155b610753576040517f08c379a000000000000000000000000000000000000000000000000000000000815260040161074a906132dd565b60405180910390fd5b5f8b111561076757610766828a8d611ec2565b5b5f8a111561077b5761077a818a8c611ec2565b5b5f8888905011156107f5578873ffffffffffffffffffffffffffffffffffffffff166310d1e85c338d8d8c8c6040518663ffffffff1660e01b81526004016107c7959493929190613345565b5f604051808303815f87803b1580156107de575f5ffd5b505af11580156107f0573d5f5f3e3d5ffd5b505050505b8173ffffffffffffffffffffffffffffffffffffffff166370a08231306040518263ffffffff1660e01b815260040161082e9190612e98565b602060405180830381865afa158015610849573d5f5f3e3d5ffd5b505050506040513d601f19601f8201168201806040525081019061086d91906133a5565b93508073ffffffffffffffffffffffffffffffffffffffff166370a08231306040518263ffffffff1660e01b81526004016108a89190612e98565b602060405180830381865afa1580156108c3573d5f5f3e3d5ffd5b505050506040513d601f19601f820116820180604052508101906108e791906133a5565b925050505f89856dffffffffffffffffffffffffffff1661090891906133fd565b8311610914575f61093c565b89856dffffffffffffffffffffffffffff1661093091906133fd565b8361093b91906133fd565b5b90505f89856dffffffffffffffffffffffffffff1661095b91906133fd565b8311610967575f61098f565b89856dffffffffffffffffffffffffffff1661098391906133fd565b8361098e91906133fd565b5b90505f82118061099e57505f81115b6109dd576040517f08c379a00000000000000000000000000000000000000000000000000000000081526004016109d4906134a0565b60405180910390fd5b5f610a186109f560038561204690919063ffffffff16565b610a0a6103e88861204690919063ffffffff16565b6120b290919063ffffffff16565b90505f610a55610a3260038561204690919063ffffffff16565b610a476103e88861204690919063ffffffff16565b6120b290919063ffffffff16565b9050610a9f620f4240610a91896dffffffffffffffffffffffffffff168b6dffffffffffffffffffffffffffff1661204690919063ffffffff16565b61204690919063ffffffff16565b610ab2828461204690919063ffffffff16565b1015610af3576040517f08c379a0000000000000000000000000000000000000000000000000000000008152600401610aea90613508565b60405180910390fd5b5050610b018484888861210a565b8873ffffffffffffffffffffffffffffffffffffffff163373ffffffffffffffffffffffffffffffffffffffff167fd78ad95fa46c994b6551d0da85fc275fe613ce37657fb8d5e3d130840159d82284848f8f604051610b649493929190613526565b60405180910390a35050505050506001600c819055505050505050565b6040518060400160405280600a81526020017f556e69737761702056320000000000000000000000000000000000000000000081525081565b5f5f5f60085f9054906101000a90046dffffffffffffffffffffffffffff1692506008600e9054906101000a90046dffffffffffffffffffffffffffff1691506008601c9054906101000a900463ffffffff169050909192565b5f610c203384846123f5565b6001905092915050565b60065f9054906101000a900473ffffffffffffffffffffffffffffffffffffffff1681565b60015481565b5f7fffffffffffffffffffffffffffffffffffffffffffffffffffffffffffffffff60035f8673ffffffffffffffffffffffffffffffffffffffff1673ffffffffffffffffffffffffffffffffffffffff1681526020019081526020015f205f3373ffffffffffffffffffffffffffffffffffffffff1673ffffffffffffffffffffffffffffffffffffffff1681526020019081526020015f205414610dfd57610d808260035f8773ffffffffffffffffffffffffffffffffffffffff1673ffffffffffffffffffffffffffffffffffffffff1681526020019081526020015f205f3373ffffffffffffffffffffffffffffffffffffffff1673ffffffffffffffffffffffffffffffffffffffff1681526020019081526020015f20546120b290919063ffffffff16565b60035f8673ffffffffffffffffffffffffffffffffffffffff1673ffffffffffffffffffffffffffffffffffffffff1681526020019081526020015f205f3373ffffffffffffffffffffffffffffffffffffffff1673ffffffffffffffffffffffffffffffffffffffff1681526020019081526020015f20819055505b610e088484846124dc565b600190509392505050565b7f6e71edae12b1b97f4d1f60370fef10105fa2faae0126114a169c64845d6126c95f1b81565b601281565b5f5481565b60055f9054906101000a900473ffffffffffffffffffffffffffffffffffffffff1673ffffffffffffffffffffffffffffffffffffffff163373ffffffffffffffffffffffffffffffffffffffff1614610ed2576040517f08c379a0000000000000000000000000000000000000000000000000000000008152600401610ec9906135b3565b60405180910390fd5b8160065f6101000a81548173ffffffffffffffffffffffffffffffffffffffff021916908373ffffffffffffffffffffffffffffffffffffffff1602179055508060075f6101000a81548173ffffffffffffffffffffffffffffffffffffffff021916908373ffffffffffffffffffffffffffffffffffffffff1602179055505050565b60095481565b600a5481565b5f6001600c5414610fa8576040517f08c379a0000000000000000000000000000000000000000000000000000000008152600401610f9f90613159565b60405180910390fd5b5f600c819055505f5f610fb9610bba565b50915091505f60065f9054906101000a900473ffffffffffffffffffffffffffffffffffffffff1673ffffffffffffffffffffffffffffffffffffffff166370a08231306040518263ffffffff1660e01b81526004016110199190612e98565b602060405180830381865afa158015611034573d5f5f3e3d5ffd5b505050506040513d601f19601f8201168201806040525081019061105891906133a5565b90505f60075f9054906101000a900473ffffffffffffffffffffffffffffffffffffffff1673ffffffffffffffffffffffffffffffffffffffff166370a08231306040518263ffffffff1660e01b81526004016110b59190612e98565b602060405180830381865afa1580156110d0573d5f5f3e3d5ffd5b505050506040513d601f19601f820116820180604052508101906110f491906133a5565b90505f61111a856dffffffffffffffffffffffffffff16846120b290919063ffffffff16565b90505f611140856dffffffffffffffffffffffffffff16846120b290919063ffffffff16565b90505f61114d8787612668565b90505f60015490505f810361119e5761118b6103e861117d611178868861204690919063ffffffff16565b61282a565b6120b290919063ffffffff16565b98506111995f6103e86128a1565b611205565b611202886dffffffffffffffffffffffffffff166111c5838761204690919063ffffffff16565b6111cf91906135fe565b886dffffffffffffffffffffffffffff166111f3848761204690919063ffffffff16565b6111fd91906135fe565b6129b6565b98505b5f8911611247576040517f08c379a000000000000000000000000000000000000000000000000000000000815260040161123e9061369e565b60405180910390fd5b6112518a8a6128a1565b61125d86868a8a61210a565b81156112d4576112cd6008600e9054906101000a90046dffffffffffffffffffffffffffff166dffffffffffffffffffffffffffff1660085f9054906101000a90046dffffffffffffffffffffffffffff166dffffffffffffffffffffffffffff1661204690919063ffffffff16565b600b819055505b3373ffffffffffffffffffffffffffffffffffffffff167f4c209b5fc8ad50758f13e2e1088ba56a560dff690a1c6fef26394f4c03821c4f858560405161131c929190612ff7565b60405180910390a250505050505050506001600c81905550919050565b6002602052805f5260405f205f915090505481565b600b5481565b6004602052805f5260405f205f915090505481565b5f5f6001600c54146113b0576040517f08c379a00000000000000000000000000000000000000000000000000000000081526004016113a790613159565b60405180910390fd5b5f600c819055505f5f6113c1610bba565b50915091505f60065f9054906101000a900473ffffffffffffffffffffffffffffffffffffffff1690505f60075f9054906101000a900473ffffffffffffffffffffffffffffffffffffffff1690505f8273ffffffffffffffffffffffffffffffffffffffff166370a08231306040518263ffffffff1660e01b815260040161144a9190612e98565b602060405180830381865afa158015611465573d5f5f3e3d5ffd5b505050506040513d601f19601f8201168201806040525081019061148991906133a5565b90505f8273ffffffffffffffffffffffffffffffffffffffff166370a08231306040518263ffffffff1660e01b81526004016114c59190612e98565b602060405180830381865afa1580156114e0573d5f5f3e3d5ffd5b505050506040513d601f19601f8201168201806040525081019061150491906133a5565b90505f60025f3073ffffffffffffffffffffffffffffffffffffffff1673ffffffffffffffffffffffffffffffffffffffff1681526020019081526020015f205490505f6115528888612668565b90505f60015490508061156e868561204690919063ffffffff16565b61157891906135fe565b9a508061158e858561204690919063ffffffff16565b61159891906135fe565b99505f8b1180156115a857505f8a115b6115e7576040517f08c379a00000000000000000000000000000000000000000000000000000000081526004016115de9061372c565b60405180910390fd5b6115f130846129ce565b6115fc878d8d611ec2565b611607868d8c611ec2565b8673ffffffffffffffffffffffffffffffffffffffff166370a08231306040518263ffffffff1660e01b81526004016116409190612e98565b602060405180830381865afa15801561165b573d5f5f3e3d5ffd5b505050506040513d601f19601f8201168201806040525081019061167f91906133a5565b94508573ffffffffffffffffffffffffffffffffffffffff166370a08231306040518263ffffffff1660e01b81526004016116ba9190612e98565b602060405180830381865afa1580156116d5573d5f5f3e3d5ffd5b505050506040513d601f19601f820116820180604052508101906116f991906133a5565b935061170785858b8b61210a565b811561177e576117776008600e9054906101000a90046dffffffffffffffffffffffffffff166dffffffffffffffffffffffffffff1660085f9054906101000a90046dffffffffffffffffffffffffffff166dffffffffffffffffffffffffffff1661204690919063ffffffff16565b600b819055505b8b73ffffffffffffffffffffffffffffffffffffffff163373ffffffffffffffffffffffffffffffffffffffff167fdccd412f0b1252819cb1fd330b93224ca42612892bb3f4f789976e6d819364968d8d6040516117dd929190612ff7565b60405180910390a35050505050505050506001600c81905550915091565b6040518060400160405280600681526020017f554e492d5632000000000000000000000000000000000000000000000000000081525081565b5f6118403384846124dc565b6001905092915050565b6103e881565b6001600c5414611895576040517f08c379a000000000000000000000000000000000000000000000000000000000815260040161188c90613159565b60405180910390fd5b5f600c819055505f60065f9054906101000a900473ffffffffffffffffffffffffffffffffffffffff1690505f60075f9054906101000a900473ffffffffffffffffffffffffffffffffffffffff1690506119a582846119a060085f9054906101000a90046dffffffffffffffffffffffffffff166dffffffffffffffffffffffffffff168673ffffffffffffffffffffffffffffffffffffffff166370a08231306040518263ffffffff1660e01b81526004016119539190612e98565b602060405180830381865afa15801561196e573d5f5f3e3d5ffd5b505050506040513d601f19601f8201168201806040525081019061199291906133a5565b6120b290919063ffffffff16565b611ec2565b611a658184611a606008600e9054906101000a90046dffffffffffffffffffffffffffff166dffffffffffffffffffffffffffff168573ffffffffffffffffffffffffffffffffffffffff166370a08231306040518263ffffffff1660e01b8152600401611a139190612e98565b602060405180830381865afa158015611a2e573d5f5f3e3d5ffd5b505050506040513d601f19601f82011682018060405250810190611a5291906133a5565b6120b290919063ffffffff16565b611ec2565b50506001600c8190555050565b60055f9054906101000a900473ffffffffffffffffffffffffffffffffffffffff1681565b60075f9054906101000a900473ffffffffffffffffffffffffffffffffffffffff1681565b42841015611aff576040517f08c379a0000000000000000000000000000000000000000000000000000000008152600401611af690613794565b60405180910390fd5b5f5f547f6e71edae12b1b97f4d1f60370fef10105fa2faae0126114a169c64845d6126c95f1b89898960045f8e73ffffffffffffffffffffffffffffffffffffffff1673ffffffffffffffffffffffffffffffffffffffff1681526020019081526020015f205f815480929190611b75906137b2565b919050558a604051602001611b8f969594939291906137f9565b60405160208183030381529060405280519060200120604051602001611bb69291906138cc565b6040516020818303038152906040528051906020012090505f6001828686866040515f8152602001604052604051611bf19493929190613902565b6020604051602081039080840390855afa158015611c11573d5f5f3e3d5ffd5b5050506020604051035190505f73ffffffffffffffffffffffffffffffffffffffff168173ffffffffffffffffffffffffffffffffffffffff1614158015611c8457508873ffffffffffffffffffffffffffffffffffffffff168173ffffffffffffffffffffffffffffffffffffffff16145b611cc3576040517f08c379a0000000000000000000000000000000000000000000000000000000008152600401611cba9061398f565b60405180910390fd5b611cce8989896123f5565b505050505050505050565b6003602052815f5260405f20602052805f5260405f205f91509150505481565b6001600c5414611d3e576040517f08c379a0000000000000000000000000000000000000000000000000000000008152600401611d3590613159565b60405180910390fd5b5f600c81905550611eb860065f9054906101000a900473ffffffffffffffffffffffffffffffffffffffff1673ffffffffffffffffffffffffffffffffffffffff166370a08231306040518263ffffffff1660e01b8152600401611da29190612e98565b602060405180830381865afa158015611dbd573d5f5f3e3d5ffd5b505050506040513d601f19601f82011682018060405250810190611de191906133a5565b60075f9054906101000a900473ffffffffffffffffffffffffffffffffffffffff1673ffffffffffffffffffffffffffffffffffffffff166370a08231306040518263ffffffff1660e01b8152600401611e3b9190612e98565b602060405180830381865afa158015611e56573d5f5f3e3d5ffd5b505050506040513d601f19601f82011682018060405250810190611e7a91906133a5565b60085f9054906101000a90046dffffffffffffffffffffffffffff166008600e9054906101000a90046dffffffffffffffffffffffffffff1661210a565b6001600c81905550565b5f5f8473ffffffffffffffffffffffffffffffffffffffff166040518060400160405280601981526020017f7472616e7366657228616464726573732c75696e743235362900000000000000815250805190602001208585604051602401611f2b9291906139ad565b604051602081830303815290604052907bffffffffffffffffffffffffffffffffffffffffffffffffffffffff19166020820180517bffffffffffffffffffffffffffffffffffffffffffffffffffffffff8381831617835250505050604051611f959190613a18565b5f604051808303815f865af19150503d805f8114611fce576040519150601f19603f3d011682016040523d82523d5f602084013e611fd3565b606091505b509150915081801561200057505f81511480611fff575080806020019051810190611ffe9190613a58565b5b5b61203f576040517f08c379a000000000000000000000000000000000000000000000000000000000815260040161203690613acd565b60405180910390fd5b5050505050565b5f5f82148061206d57508282838561205e9190613aeb565b92508261206b91906135fe565b145b6120ac576040517f08c379a00000000000000000000000000000000000000000000000000000000081526004016120a390613b76565b60405180910390fd5b92915050565b5f8282846120c091906133fd565b9150811115612104576040517f08c379a00000000000000000000000000000000000000000000000000000000081526004016120fb90613bde565b60405180910390fd5b92915050565b6dffffffffffffffffffffffffffff8016841115801561213a57506dffffffffffffffffffffffffffff80168311155b612179576040517f08c379a000000000000000000000000000000000000000000000000000000000815260040161217090613c46565b60405180910390fd5b5f6401000000004261218b9190613c64565b90505f6008601c9054906101000a900463ffffffff16826121ac9190613c94565b90505f8163ffffffff161180156121d357505f846dffffffffffffffffffffffffffff1614155b80156121ef57505f836dffffffffffffffffffffffffffff1614155b156122f3578063ffffffff166122348561220886612ae3565b7bffffffffffffffffffffffffffffffffffffffffffffffffffffffff16612b1690919063ffffffff16565b7bffffffffffffffffffffffffffffffffffffffffffffffffffffffff1661225c9190613aeb565b60095f82825461226c9190613ccb565b925050819055508063ffffffff166122b38461228787612ae3565b7bffffffffffffffffffffffffffffffffffffffffffffffffffffffff16612b1690919063ffffffff16565b7bffffffffffffffffffffffffffffffffffffffffffffffffffffffff166122db9190613aeb565b600a5f8282546122eb9190613ccb565b925050819055505b8560085f6101000a8154816dffffffffffffffffffffffffffff02191690836dffffffffffffffffffffffffffff160217905550846008600e6101000a8154816dffffffffffffffffffffffffffff02191690836dffffffffffffffffffffffffffff160217905550816008601c6101000a81548163ffffffff021916908363ffffffff1602179055507f1c411e9a96e071241c2f21f7726b17ae89e3cab4c78be50e062b03a9fffbbad160085f9054906101000a90046dffffffffffffffffffffffffffff166008600e9054906101000a90046dffffffffffffffffffffffffffff166040516123e5929190613cfe565b60405180910390a1505050505050565b8060035f8573ffffffffffffffffffffffffffffffffffffffff1673ffffffffffffffffffffffffffffffffffffffff1681526020019081526020015f205f8473ffffffffffffffffffffffffffffffffffffffff1673ffffffffffffffffffffffffffffffffffffffff1681526020019081526020015f20819055508173ffffffffffffffffffffffffffffffffffffffff168373ffffffffffffffffffffffffffffffffffffffff167f8c5be1e5ebec7d5bd14f71427d1e84f3dd0314c0f7b2291e5b200ac8c7c3b925836040516124cf9190612ec0565b60405180910390a3505050565b61252c8160025f8673ffffffffffffffffffffffffffffffffffffffff1673ffffffffffffffffffffffffffffffffffffffff1681526020019081526020015f20546120b290919063ffffffff16565b60025f8573ffffffffffffffffffffffffffffffffffffffff1673ffffffffffffffffffffffffffffffffffffffff1681526020019081526020015f20819055506125bd8160025f8573ffffffffffffffffffffffffffffffffffffffff1673ffffffffffffffffffffffffffffffffffffffff1681526020019081526020015f2054612b3b90919063ffffffff16565b60025f8473ffffffffffffffffffffffffffffffffffffffff1673ffffffffffffffffffffffffffffffffffffffff1681526020019081526020015f20819055508173ffffffffffffffffffffffffffffffffffffffff168373ffffffffffffffffffffffffffffffffffffffff167fddf252ad1be2c89b69c2b068fc378daa952ba7f163c4a11628f55a4df523b3ef8360405161265b9190612ec0565b60405180910390a3505050565b5f5f60055f9054906101000a900473ffffffffffffffffffffffffffffffffffffffff1673ffffffffffffffffffffffffffffffffffffffff1663017e7e586040518163ffffffff1660e01b8152600401602060405180830381865afa1580156126d4573d5f5f3e3d5ffd5b505050506040513d601f19601f820116820180604052508101906126f89190613d39565b90505f73ffffffffffffffffffffffffffffffffffffffff168173ffffffffffffffffffffffffffffffffffffffff16141591505f600b5490508215612812575f811461280d575f61277b612776866dffffffffffffffffffffffffffff16886dffffffffffffffffffffffffffff1661204690919063ffffffff16565b61282a565b90505f6127878361282a565b90508082111561280a575f6127b96127a883856120b290919063ffffffff16565b60015461204690919063ffffffff16565b90505f6127e2836127d460058761204690919063ffffffff16565b612b3b90919063ffffffff16565b90505f81836127f191906135fe565b90505f8111156128065761280587826128a1565b5b5050505b50505b612822565b5f8114612821575f600b819055505b5b505092915050565b5f600382111561288f578190505f600160028461284791906135fe565b6128519190613ccb565b90505b8181101561288957809150600281828561286e91906135fe565b6128789190613ccb565b61288291906135fe565b9050612854565b5061289c565b5f821461289b57600190505b5b919050565b6128b681600154612b3b90919063ffffffff16565b60018190555061290c8160025f8573ffffffffffffffffffffffffffffffffffffffff1673ffffffffffffffffffffffffffffffffffffffff1681526020019081526020015f2054612b3b90919063ffffffff16565b60025f8473ffffffffffffffffffffffffffffffffffffffff1673ffffffffffffffffffffffffffffffffffffffff1681526020019081526020015f20819055508173ffffffffffffffffffffffffffffffffffffffff165f73ffffffffffffffffffffffffffffffffffffffff167fddf252ad1be2c89b69c2b068fc378daa952ba7f163c4a11628f55a4df523b3ef836040516129aa9190612ec0565b60405180910390a35050565b5f8183106129c457816129c6565b825b905092915050565b612a1e8160025f8573ffffffffffffffffffffffffffffffffffffffff1673ffffffffffffffffffffffffffffffffffffffff1681526020019081526020015f20546120b290919063ffffffff16565b60025f8473ffffffffffffffffffffffffffffffffffffffff1673ffffffffffffffffffffffffffffffffffffffff1681526020019081526020015f2081905550612a74816001546120b290919063ffffffff16565b6001819055505f73ffffffffffffffffffffffffffffffffffffffff168273ffffffffffffffffffffffffffffffffffffffff167fddf252ad1be2c89b69c2b068fc378daa952ba7f163c4a11628f55a4df523b3ef83604051612ad79190612ec0565b60405180910390a35050565b5f6e010000000000000000000000000000826dffffffffffffffffffffffffffff16612b0f9190613d8b565b9050919050565b5f816dffffffffffffffffffffffffffff1683612b339190613dcc565b905092915050565b5f828284612b499190613ccb565b9150811015612b8d576040517f08c379a0000000000000000000000000000000000000000000000000000000008152600401612b8490613e46565b60405180910390fd5b92915050565b5f5ffd5b5f5ffd5b5f819050919050565b612bad81612b9b565b8114612bb7575f5ffd5b50565b5f81359050612bc881612ba4565b92915050565b5f73ffffffffffffffffffffffffffffffffffffffff82169050919050565b5f612bf782612bce565b9050919050565b612c0781612bed565b8114612c11575f5ffd5b50565b5f81359050612c2281612bfe565b92915050565b5f5ffd5b5f5ffd5b5f5ffd5b5f5f83601f840112612c4957612c48612c28565b5b8235905067ffffffffffffffff811115612c6657612c65612c2c565b5b602083019150836001820283011115612c8257612c81612c30565b5b9250929050565b5f5f5f5f5f60808688031215612ca257612ca1612b93565b5b5f612caf88828901612bba565b9550506020612cc088828901612bba565b9450506040612cd188828901612c14565b935050606086013567ffffffffffffffff811115612cf257612cf1612b97565b5b612cfe88828901612c34565b92509250509295509295909350565b5f81519050919050565b5f82825260208201905092915050565b8281835e5f83830152505050565b5f601f19601f8301169050919050565b5f612d4f82612d0d565b612d598185612d17565b9350612d69818560208601612d27565b612d7281612d35565b840191505092915050565b5f6020820190508181035f830152612d958184612d45565b905092915050565b5f6dffffffffffffffffffffffffffff82169050919050565b612dbf81612d9d565b82525050565b5f63ffffffff82169050919050565b612ddd81612dc5565b82525050565b5f606082019050612df65f830186612db6565b612e036020830185612db6565b612e106040830184612dd4565b949350505050565b5f5f60408385031215612e2e57612e2d612b93565b5b5f612e3b85828601612c14565b9250506020612e4c85828601612bba565b9150509250929050565b5f8115159050919050565b612e6a81612e56565b82525050565b5f602082019050612e835f830184612e61565b92915050565b612e9281612bed565b82525050565b5f602082019050612eab5f830184612e89565b92915050565b612eba81612b9b565b82525050565b5f602082019050612ed35f830184612eb1565b92915050565b5f5f5f60608486031215612ef057612eef612b93565b5b5f612efd86828701612c14565b9350506020612f0e86828701612c14565b9250506040612f1f86828701612bba565b9150509250925092565b5f819050919050565b612f3b81612f29565b82525050565b5f602082019050612f545f830184612f32565b92915050565b5f60ff82169050919050565b612f6f81612f5a565b82525050565b5f602082019050612f885f830184612f66565b92915050565b5f5f60408385031215612fa457612fa3612b93565b5b5f612fb185828601612c14565b9250506020612fc285828601612c14565b9150509250929050565b5f60208284031215612fe157612fe0612b93565b5b5f612fee84828501612c14565b91505092915050565b5f60408201905061300a5f830185612eb1565b6130176020830184612eb1565b9392505050565b61302781612f5a565b8114613031575f5ffd5b50565b5f813590506130428161301e565b92915050565b61305181612f29565b811461305b575f5ffd5b50565b5f8135905061306c81613048565b92915050565b5f5f5f5f5f5f5f60e0888a03121561308d5761308c612b93565b5b5f61309a8a828b01612c14565b97505060206130ab8a828b01612c14565b96505060406130bc8a828b01612bba565b95505060606130cd8a828b01612bba565b94505060806130de8a828b01613034565b93505060a06130ef8a828b0161305e565b92505060c06131008a828b0161305e565b91505092959891949750929550565b7f556e697377617056323a204c4f434b45440000000000000000000000000000005f82015250565b5f613143601183612d17565b915061314e8261310f565b602082019050919050565b5f6020820190508181035f83015261317081613137565b9050919050565b7f556e697377617056323a20494e53554646494349454e545f4f55545055545f415f8201527f4d4f554e54000000000000000000000000000000000000000000000000000000602082015250565b5f6131d1602583612d17565b91506131dc82613177565b604082019050919050565b5f6020820190508181035f8301526131fe816131c5565b9050919050565b7f556e697377617056323a20494e53554646494349454e545f4c495155494449545f8201527f5900000000000000000000000000000000000000000000000000000000000000602082015250565b5f61325f602183612d17565b915061326a82613205565b604082019050919050565b5f6020820190508181035f83015261328c81613253565b9050919050565b7f556e697377617056323a20494e56414c49445f544f00000000000000000000005f82015250565b5f6132c7601583612d17565b91506132d282613293565b602082019050919050565b5f6020820190508181035f8301526132f4816132bb565b9050919050565b5f82825260208201905092915050565b828183375f83830152505050565b5f61332483856132fb565b935061333183858461330b565b61333a83612d35565b840190509392505050565b5f6080820190506133585f830188612e89565b6133656020830187612eb1565b6133726040830186612eb1565b8181036060830152613385818486613319565b90509695505050505050565b5f8151905061339f81612ba4565b92915050565b5f602082840312156133ba576133b9612b93565b5b5f6133c784828501613391565b91505092915050565b7f4e487b71000000000000000000000000000000000000000000000000000000005f52601160045260245ffd5b5f61340782612b9b565b915061341283612b9b565b925082820390508181111561342a576134296133d0565b5b92915050565b7f556e697377617056323a20494e53554646494349454e545f494e5055545f414d5f8201527f4f554e5400000000000000000000000000000000000000000000000000000000602082015250565b5f61348a602483612d17565b915061349582613430565b604082019050919050565b5f6020820190508181035f8301526134b78161347e565b9050919050565b7f556e697377617056323a204b00000000000000000000000000000000000000005f82015250565b5f6134f2600c83612d17565b91506134fd826134be565b602082019050919050565b5f6020820190508181035f83015261351f816134e6565b9050919050565b5f6080820190506135395f830187612eb1565b6135466020830186612eb1565b6135536040830185612eb1565b6135606060830184612eb1565b95945050505050565b7f556e697377617056323a20464f5242494444454e0000000000000000000000005f82015250565b5f61359d601483612d17565b91506135a882613569565b602082019050919050565b5f6020820190508181035f8301526135ca81613591565b9050919050565b7f4e487b71000000000000000000000000000000000000000000000000000000005f52601260045260245ffd5b5f61360882612b9b565b915061361383612b9b565b925082613623576136226135d1565b5b828204905092915050565b7f556e697377617056323a20494e53554646494349454e545f4c495155494449545f8201527f595f4d494e544544000000000000000000000000000000000000000000000000602082015250565b5f613688602883612d17565b91506136938261362e565b604082019050919050565b5f6020820190508181035f8301526136b58161367c565b9050919050565b7f556e697377617056323a20494e53554646494349454e545f4c495155494449545f8201527f595f4255524e4544000000000000000000000000000000000000000000000000602082015250565b5f613716602883612d17565b9150613721826136bc565b604082019050919050565b5f6020820190508181035f8301526137438161370a565b9050919050565b7f556e697377617056323a204558504952454400000000000000000000000000005f82015250565b5f61377e601283612d17565b91506137898261374a565b602082019050919050565b5f6020820190508181035f8301526137ab81613772565b9050919050565b5f6137bc82612b9b565b91507fffffffffffffffffffffffffffffffffffffffffffffffffffffffffffffffff82036137ee576137ed6133d0565b5b600182019050919050565b5f60c08201905061380c5f830189612f32565b6138196020830188612e89565b6138266040830187612e89565b6138336060830186612eb1565b6138406080830185612eb1565b61384d60a0830184612eb1565b979650505050505050565b5f81905092915050565b7f19010000000000000000000000000000000000000000000000000000000000005f82015250565b5f613896600283613858565b91506138a182613862565b600282019050919050565b5f819050919050565b6138c66138c182612f29565b6138ac565b82525050565b5f6138d68261388a565b91506138e282856138b5565b6020820191506138f282846138b5565b6020820191508190509392505050565b5f6080820190506139155f830187612f32565b6139226020830186612f66565b61392f6040830185612f32565b61393c6060830184612f32565b95945050505050565b7f556e697377617056323a20494e56414c49445f5349474e4154555245000000005f82015250565b5f613979601c83612d17565b915061398482613945565b602082019050919050565b5f6020820190508181035f8301526139a68161396d565b9050919050565b5f6040820190506139c05f830185612e89565b6139cd6020830184612eb1565b9392505050565b5f81519050919050565b5f81905092915050565b5f6139f2826139d4565b6139fc81856139de565b9350613a0c818560208601612d27565b80840191505092915050565b5f613a2382846139e8565b915081905092915050565b613a3781612e56565b8114613a41575f5ffd5b50565b5f81519050613a5281613a2e565b92915050565b5f60208284031215613a6d57613a6c612b93565b5b5f613a7a84828501613a44565b91505092915050565b7f556e697377617056323a205452414e534645525f4641494c45440000000000005f82015250565b5f613ab7601a83612d17565b9150613ac282613a83565b602082019050919050565b5f6020820190508181035f830152613ae481613aab565b9050919050565b5f613af582612b9b565b9150613b0083612b9b565b9250828202613b0e81612b9b565b91508282048414831517613b2557613b246133d0565b5b5092915050565b7f64732d6d6174682d6d756c2d6f766572666c6f770000000000000000000000005f82015250565b5f613b60601483612d17565b9150613b6b82613b2c565b602082019050919050565b5f6020820190508181035f830152613b8d81613b54565b9050919050565b7f64732d6d6174682d7375622d756e646572666c6f7700000000000000000000005f82015250565b5f613bc8601583612d17565b9150613bd382613b94565b602082019050919050565b5f6020820190508181035f830152613bf581613bbc565b9050919050565b7f556e697377617056323a204f564552464c4f57000000000000000000000000005f82015250565b5f613c30601383612d17565b9150613c3b82613bfc565b602082019050919050565b5f6020820190508181035f830152613c5d81613c24565b9050919050565b5f613c6e82612b9b565b9150613c7983612b9b565b925082613c8957613c886135d1565b5b828206905092915050565b5f613c9e82612dc5565b9150613ca983612dc5565b9250828203905063ffffffff811115613cc557613cc46133d0565b5b92915050565b5f613cd582612b9b565b9150613ce083612b9b565b9250828201905080821115613cf857613cf76133d0565b5b92915050565b5f604082019050613d115f830185612db6565b613d1e6020830184612db6565b9392505050565b5f81519050613d3381612bfe565b92915050565b5f60208284031215613d4e57613d4d612b93565b5b5f613d5b84828501613d25565b91505092915050565b5f7bffffffffffffffffffffffffffffffffffffffffffffffffffffffff82169050919050565b5f613d9582613d64565b9150613da083613d64565b9250828202613dae81613d64565b91508282048414831517613dc557613dc46133d0565b5b5092915050565b5f613dd682613d64565b9150613de183613d64565b925082613df157613df06135d1565b5b828204905092915050565b7f64732d6d6174682d6164642d6f766572666c6f770000000000000000000000005f82015250565b5f613e30601483612d17565b9150613e3b82613dfc565b602082019050919050565b5f6020820190508181035f830152613e5d81613e24565b905091905056fea26469706673582212209e48438d8a72903fa5b7b5b1badf006f1fe4a4baef6d5d085073963c6aaf865764736f6c634300081c0033a26469706673582212205d644d5028b9a2f66cdb79bce1e4d56784ad5b325d219584cd51e180887a5fbe64736f6c634300081c0033","linkReferences":{}},"methodIdentifiers":{"allPairs(uint256)":"1e3dd18b","allPairsLength()":"574f2ba3","createPair(address,address)":"c9c65396","feeTo()":"017e7e58","feeToSetter()":"094b7415","getPair(address,address)":"e6a43905","setFeeTo(address)":"f46901ed","setFeeToSetter(address)":"a2e74af6"},"id":19}